:10000000180C0120A90E0000A50E0000A50E00008E
:10001000A50E0000A50E0000A50E000000000000C7
:10002000000000000000000000000000A50E00001D
:10003000A50E000000000000A50E0000A50E0000A7
:10004000A50E0000A50E0000A50E0000A50E0000E4
:10005000A50E0000A50E0000A50E0000A50E0000D4
:10006000A50E0000A50E0000A50E0000A50E0000C4
:10007000A50E0000A50E0000A50E0000A50E0000B4
:10008000A50E0000A50E0000A50E0000A50E0000A4
:10009000A50E0000A50E0000A50E0000A50E000094
:1000A000A50E0000A50E0000A50E0000A50E000084
:1000B000A50E0000A50E0000A50E00002D2C0000CE
:1000C000392C0000452C0000512C00005D2C000054
:1000D000A50E0000A50E0000A50E0000A50E000054
:1000E000A50E0000A50E00000000000000000000AA
:1000F000000000007D2D0000A50E0000A50E0000F0
:10010000A50E0000A50E0000A50E0000A50E000023
:10011000A50E0000A50E0000A50E0000A50E000013
:10012000A50E0000A50E0000A50E0000A50E000003
:10013000A50E0000A50E0000A50E0000A50E0000F3
:10014000A50E0000A50E0000A50E0000A50E0000E3
:10015000A50E0000A50E0000A50E0000A50E0000D3
:10016000A50E0000A50E0000A50E0000A50E0000C3
:10017000A50E0000A50E0000A50E0000A50E0000B3
:10018000A50E0000A50E0000A50E0000A50E0000A3
:10019000A50E0000A50E0000A50E0000A50E000093
:1001A000A50E0000A50E0000A50E0000A50E000083
:1001B000A50E0000A50E0000A50E0000A50E000073
:1001C000A50E0000A50E0000A50E0000A50E000063
:1001D000A50E0000A50E0000A50E0000A50E000053
:1001E000A50E0000A50E0000A50E0000594100005C
:1001F000A50E0000A50E0000A50E0000A50E000033
:10020000A50E0000A50E0000C9150000A50E0000F7
:10021000A50E0000A50E0000A50E0000A50E000012
:1002200099280000AD280000A50E0000A50E0000D2
:10023000A50E0000A50E0000A50E0000A50E0000F2
:10024000A50E0000A50E0000A50E0000A50E0000E2
:10025000A50E0000A50E0000A50E0000A50E0000D2
:10026000A50E000010B5054C237833B9044B13B12B
:100270000448AFF300800123237010BD200200204A
:1002800000000000646200000C4B43B10C480D49B3
:1002900010B5AFF300800C48036823B910BD0A48BD
:1002A000036833B97047094B002BF7D0BDE8104005
:1002B0001847064B002BF5D0184700BF0000000080
:1002C000646200002402002064620000000000005C
:1002D00008B5014B984708BDC513000050B14268EE
:1002E0005AB1826862B1C3680BB1002070474FF009
:1002F000FF3070474FF0FF3070474FF0FF307047CE
:100300004FF0FF30704770B4012408E06500013DF4
:10031000065D4E55155D01F814500134E4B29C425F
:10032000F4D370BC7047000001380B4B984202D9DF
:100330004A1E9A420AD8084B98420AD80139994273
:1003400001D8002070476FF00A0070476FF00B0073
:1003500070476FF009007047EEFF0F002DE9F04184
:1003600006460D4690461C4618460E4B984778B9EF
:100370008DB1A3780BB946F08006676843462A46DC
:1003800031466078B847034640B91846BDE8F08169
:100390004FF0FF33F9E74FF0FF33F6E76FF0030359
:1003A000F3E700BFDD02000030B587B0044600234C
:1003B000009301930293039304930593324B984760
:1003C000034610B1184607B030BD234618226946CF
:1003D00088202E4DA84703460028F3D19DF8011030
:1003E0009DF8002042EA012222829DF803109DF828
:1003F000022042EA012262829DF805109DF8042045
:1004000042EA0122A2829DF807109DF8062042EAE6
:100410000122E2829DF809109DF8082042EA01229B
:1004200022839DF80B109DF80A2042EA0122628384
:100430009DF80D109DF80C2042EA0122A2839DF840
:100440000F109DF80E2042EA0122E2839DF8111060
:100450009DF8102042EA012222849DF813109DF895
:10046000122042EA012262849DF815109DF81420A2
:1004700042EA0122A2849DF817109DF8162042EA54
:100480000122E2849EE700BFDD0200005D03000060
:10049000F0B583B005460F4614461E46042A00D91F
:1004A000042430461D4B984748BB5DB36FB37CB303
:1004B0003B788DF80030B378EBB1012C1DD9234681
:1004C0003A4669462846164FB8476400013CA3B235
:1004D000B4686A4629787078A0470346D8B91846A8
:1004E00003B0F0BDA95C01F07F01A9540132D2B282
:1004F0009442F7D8E1E70022FAE7A3B2E8E74FF029
:10050000FF33ECE74FF0FF33E9E74FF0FF33E6E767
:100510006FF00203E3E76FF00303E0E7DD020000A2
:100520000703000030B583B00546E0238DF807309F
:10053000B6238DF806300A4B9847044610B1204682
:1005400003B030BD2B4601220DF106010DF107006D
:10055000044CA0470446EB6802209847EFE700BF31
:10056000DD02000091040000F0B583B006460D46A0
:10057000144600238DF804308DF80530354B1B8868
:10058000ADF800301046344B984700285BD1002D61
:100590005CD02346022201A9F420304FB84703461D
:1005A00010B1184603B0F0BD20462D4B98470346C6
:1005B0000028F6D19DF9043003F01F032A7843EA9E
:1005C00042135BB223F01C036A78920002F01C0213
:1005D00013438DF804309DF9053003F01F03AA780A
:1005E00043EA42135BB223F01C03EA78920002F064
:1005F0001C02134323F0010395F9042002F00102C9
:1006000013438DF805302346022201A96846154F91
:10061000B84703460028C4D12868E0622A7984F8E4
:100620003020002EBDD09DF9043023F0030306F0E6
:1006300003061E4302A901F8046D23460122684601
:10064000B8470346ADE74FF0FF33AAE74FF0FF335B
:10065000A7E700BF105F0000DD0200005D0300009F
:10066000250500009104000070B506461A4B984716
:10067000054678BB052409E03046184B98470546E7
:1006800019E0F3680A209847013CE4B29CB1334674
:1006900001223146D020124DA84733780546002864
:1006A000EFD1563BDBB2022BEBD830460D4B9847CF
:1006B00005460028E0D00CB96FF0010555B90023BC
:1006C00086F82F3086F82D3086F82C3086F82E30BC
:1006D00086F83030284670BDDD020000A903000016
:1006E0005D0300002505000070B582B004460D468C
:1006F00000238DF804308DF805300846154B9847D7
:1007000008BB1CB32B46022201A9F420124EB047AD
:100710000246A8B99DF8043059092170C3F3820339
:1007200063709DF805305909A170C3F38201E1702F
:1007300003F0010323712068E862237985F83030E3
:10074000104602B070BD4FF0FF32F9E74FF0FF32B4
:10075000F6E700BFDD0200005D03000038B5054686
:100760000C460846064B9847034608B1184638BD64
:10077000224604F12C012846024B98470346F5E730
:10078000DD0200006905000030B583B004460D4667
:1007900000230093ADF804300846184B984718BB67
:1007A0002CB32B4606226946F720154DA84708BBF7
:1007B0009DF800309DF80110090141EA03319DF8D0
:1007C000023041EA131161609DF803309DF8040086
:1007D000000140EA03309DF8053040EA1310206024
:1007E000084B984703B030BD4FF0FF30FAE74FF0A9
:1007F000FF30F7E76FF00C00F4E700BFDD02000008
:100800005D0300002903000070B504460E4615463E
:100810001046214B9847D0BB01463046002E25DBC1
:100820002A8A5300C3EBE000B5F9123003FB00F352
:10083000002B1DDBDB123046002E1CDBC2EB20122E
:1008400002FB02F2002A19DB1213B5F9140000FBB7
:1008500002F2002A15DB03EBA233AB6203EB830346
:10086000803312D41B122360084670BDF01DD7E7F9
:1008700003F2FF73DEE706F10F00DFE702F6FF7217
:10088000E2E702F57F523F32E5E7FF33EAE7002374
:1008900023606FF00D01E7E7DD020000F8B50446C4
:1008A0000F4615461046524B98470646002870D111
:1008B000AB6A03EBD3735B10A3F57A421146002AAF
:1008C00069DB891001FB01F10846002965DBC012D4
:1008D000B5F920E0B5F91E3003FB02F35B000EFB17
:1008E0000033002B5CDBB5F91C00000400EBA30017
:1008F000B5F91AC08E46002954DB4FEA6E3303FB6C
:100900000CF1002953DBB5F9183003FB02F303EBBC
:10091000D3735B1013EBE1034BD49B1403F500433B
:10092000EA8A02FB03F3002B48DBDB1302460028B4
:1009300048DB12135242D21B40F6354707FB02F741
:1009400007F1434707F5A0072760002B4BD0002F86
:100950003BDB7F00B7FBF3F72760B5F92630216852
:10096000CA0802FB02F2520B02FB03F3002B31DB3D
:100970001B138A08B5F9240000FB02F2002A2CDBC5
:1009800003EB6233B5F922209B182AD401EB231321
:1009900023603046F8BDD11C93E701F2FF7096E763
:1009A0000333A0E701F5FF5E0EF11F0EA5E7073147
:1009B000A9E703F57F3303F2FF33AEE703F5FF4307
:1009C0007F33B2E700F6FF72B3E7B7FBF3F77F00C0
:1009D0002760C2E703F6FF73CAE702F5FF521F3232
:1009E000CEE70F33D2E7002323606FF00E06D0E787
:1009F000DD0200002DE9F04F83B005460191144659
:100A000010468F4B98470090002840F0EB80A26A78
:100A1000D317B2F5FA3243F1FF3302FB03F1A2FB25
:100A2000026707EB4107B4F920A04FEAEA7B06FB17
:100A30000BF10AFB0711A6FB0AAB8B44B4F91E00AD
:100A4000C11702FB01FE00FB03EEA2FB0001714493
:100A50004FEA414949EAD0394FEA40481AEB080ABF
:100A60004BEB090BB4F91C004FF000084FEAC0092A
:100A700018EB0A0849EB0B09B4F91A00C11706FB79
:100A800001F100FB0711A6FB00670F44B246BB460D
:100A9000002E77F10001C0F2A9804FEA1A2646EA3B
:100AA0000B604FEA2B21B4F91860F71702FB07F728
:100AB00006FB0377A2FB06233B441F0347EA1257BA
:100AC000160380197941003041F50041E68AA0FB08
:100AD000062306FB01331946002A73F10006C0F213
:100AE0008A804A10CB1752EA030100F0A2800199D4
:100AF000C1F580114FEA510B4FEAC17ABAEB0808F1
:100B00006BEB090918EB080649EB090716EB080619
:100B100047EB0907B90141EA9661B00180197941B3
:100B20008E0046EA9076870017EB080046EB090135
:100B30008E0046EA9076870017EB080046EB090125
:100B4000404EB047B4F92620D31780468946002886
:100B500071F1000654DB4FEA583646EAC9464FEABF
:100B6000693702FB07FE06FB03EEA2FB0623734474
:100B700006FB03F307FB0233A6FB02671F44324662
:100B80003B46002E77F1000E43DB520E42EAC318BB
:100B90004FEA6369B4F92420D31700FB03F602FB84
:100BA0000166A0FB0223334416461F46002A73F158
:100BB000000E34DBF60C46EA4732FB1410EB08005B
:100BC00041EB09018018594106460F46002871F192
:100BD000000329DB310A41EA0762B4F922603001DF
:100BE00012182A60009803B0BDE8F08F16F1FF0AD2
:100BF00047F1000B51E712F1FF3043F1010170E7BB
:100C000041F6FF784FF0000918EB000849EB0109A5
:100C1000A1E76FF07E42002392197B41B5E70A4EAF
:100C20000027B6185F41C5E710F1FF0641F1000744
:100C3000D0E700232B606FF00F030093D2E700BFD3
:100C4000DD020000495B0000FFFF0700000000001C
:100C50002DE9F04F89B082468B4614461046804BF2
:100C600098470390002840F0EB807E4FA06AB84779
:100C70007D4D00227D4BA847DFF8249200227C4B5B
:100C8000C84702460B46CDE90023A847CDE9040139
:100C9000B4F92000B84702460B46DDE90401A84735
:100CA00000224FF07C53A847CDE90401B4F91E009F
:100CB000B84702460B46DDE90001A8476D4E0246E3
:100CC0000B46B04702460B46DDE90401B04700225F
:100CD000694BA847CDE90401B4F91C00B8470022CC
:100CE000664BA84702460B46DDE90401B047CDE953
:100CF0000601B4F91A00B84702460B46DDE90001C7
:100D0000A84702460B46DDE90001A84700224FF044
:100D10007B53A847CDE90401B4F91800B84702464F
:100D20000B46DDE90001A84702460B46DDE9040158
:100D3000B04700224FF07B53A84700224FF07C536E
:100D4000A84700224E4BB047074688464D4EE08AE2
:100D5000B04702460B4638464146A847CDE9000158
:100D60005846B04702460B4600204749C8478046D0
:100D70008946CAE9008900220023DDE90067304680
:100D80003946424DA84700285ED100220023304654
:100D900039463F4DA847002856D1334D00223D4BE0
:100DA000DDE90601A84702460B4640464946DFF802
:100DB000F080C04728A3D3E90023A84732463B462A
:100DC000354EB04780468946CAE90089254FB4F9B7
:100DD0002600B84702460B4640464946A847024609
:100DE0000B4640464946A84700224FF07853A84793
:100DF000CDE90001B4F92400B84702460B4640464D
:100E00004946A84700224FF07C53A847194E024696
:100E10000B46DDE90001B047CDE90001B4F922003D
:100E2000B84702460B46DDE90001B04700221B4BE4
:100E3000A84702460B4640464946B047CAE900016A
:100E4000039809B0BDE8F08F00220023CAE900230F
:100E50006FF011030393F3E700000000006AB8404D
:100E6000DD0200001D550000E95500000000E03FD4
:100E70000040EF40855200000000D03F0000F040ED
:100E80000000F03FFD540000000030411D5B0000F9
:100E9000B95A00000000303F3D5800000000B03F4C
:100EA00081520000FEE7000008B5154B154A9A4232
:100EB00009D0134B134A03E011681960043304325C
:100EC00011498B42F8D3114B02E000221A6004331F
:100ED0000F4A9342F9D30F4B0F4A22F07F029A60D8
:100EE000D3F8882042F47002C3F88820BFF34F8FF4
:100EF000BFF36F8F094B9847094B9847FEE700BF38
:100F00000000002064620000140200202002002083
:100F1000140C002000ED00E000000000C95E00009D
:100F2000E543000008B5084A536943F48043536120
:100F30004022064BC3F8A420054B984702460549BA
:100F40000548064B984708BD00080040001C0040BB
:100F5000134100000038004064050020B520000067
:100F6000F0B585B0294A136A43F4807313624022B6
:100F7000274BC3F82421274E274D00240294274BEA
:100F80000193012300932346324625492846254FE5
:100F9000B8471023321D21462846234CA047234B37
:100FA0001022C3F8842002F18042C3F8A8204FF039
:100FB0004041C3F8A81093F8C42002F0FE0242F0AA
:100FC000010283F8C42093F8B22002F0F00242F04C
:100FD000010283F8B2202022C3F8842002F180426B
:100FE000C3F8A820C3F8A81093F8C52002F0FE02A9
:100FF00042F0010283F8C52093F8B22002F00F02FC
:1010000042F0100283F8B22005B0F0BD00080040A5
:10101000001C00403C020020200500204C05002060
:1010200000200043A51800004D1900000080004179
:10103000104B93F8D92002F0FE0242F0010283F82F
:10104000D92093F8BC2002F00F0242F0300283F85E
:10105000BC2093F8D82002F0FE0242F0010283F88F
:10106000D82093F8BC2002F0F00242F0030283F88B
:10107000BC20704700800041064B4022C3F8DC20B2
:101080004322C3F88C20044A936943F400739361AC
:10109000704700BF001C00400008004008B5054B29
:1010A0009847002204490548054B9847054B984747
:1010B00008BD00BF7910000000200141B0050020EC
:1010C000A922000031100000164B93F8562002F0C0
:1010D000FB0283F8562093F8562002F0FE0242F0FD
:1010E000010283F8562093F83B2002F0F00242F010
:1010F000020283F83B2093F8572002F0FB0283F8AA
:10110000572093F8572002F0FE0242F0010283F8C4
:10111000572093F83B2002F00F0242F0200283F8A0
:101120003B20704700800041064B4022C3F8E0207E
:101130004222C3F88C20044A936943F4806393618C
:10114000704700BF001C00400008004008B5044B79
:10115000984704490448054B9847054B984708BDF4
:101160002911000000400141BC050020711C000055
:10117000C91000002C4B4FF48032C3F89420C3F800
:1011800088204FF08041C3F8A810284AC3F8A8204F
:1011900093F8D02002F0FE0242F0010283F8D02042
:1011A00093F8B82002F0F00242F0020283F8B8206F
:1011B0004FF40032C3F89420C3F88820C3F8A81075
:1011C0001B4AC3F8A82093F8D12002F0FE0242F097
:1011D000010283F8D12093F8B82002F00F0242F008
:1011E000200283F8B8200222C3F88420114AC3F8F1
:1011F000A820114AC3F8A82093F8C12002F0FB02EE
:1012000083F8C12093F8C12002F0FE0242F00102EF
:1012100083F8C12093F8B02002F00F0242F03002B0
:1012200083F8B020704700BF00800041010000C07B
:10123000020000C002000240000002C0064B402233
:10124000C3F80C214322C3F88C20044A136A43F0EC
:1012500002031362704700BF001C004000080040FA
:1012600008B5044B984704490448054B9847054B7B
:10127000984708BD3D12000000040043800500208F
:10128000F51D0000751100002D4B1022C3F814212C
:10129000C3F8082102F18042C3F828214FF04041F1
:1012A000C3F8281193F8442102F0FE0242F0010233
:1012B00083F8442193F8322102F0F00242F0020256
:1012C00083F832212022C3F81421C3F8082102F147
:1012D0008042C3F82821C3F8281193F8452102F071
:1012E000FE0242F0010283F8452193F8322102F018
:1012F0000F0242F0200283F832218022C3F8042139
:1013000002F1804202F50032C3F828210D4AC3F8E9
:10131000282193F8472102F0FB0283F8472193F834
:10132000472102F0FE0242F0010283F8472193F8C0
:10133000332102F00F0242F0200283F8332170477C
:1013400000800041000002C0064B4022C3F810217B
:101350004322C3F88C20044A136A43F00403136247
:10136000704700BF001C00400008004008B5044B57
:10137000984704490448054B9847054B984708BDD2
:10138000491300000008004308050020991E0000D2
:101390008912000008B50248024B984708BD00BFFB
:1013A00010E000E0DD1B0000044A136A43F0400334
:1013B00013624022024BC3F81C2170470008004012
:1013C000001C004008B51D4B98471D4B0122C3F877
:1013D0009820C3F8882002F18042C3F8A8204FF07B
:1013E0004041C3F8A81093F8C02002F0FE0283F831
:1013F000C0204FF48042C3F81821C3F808214FF0F1
:101400004022C3F82821C3F8281193F84E2102F096
:10141000FE0283F84E210B4B98470B4B98470B4B22
:1014200098470B4B98470B4B98470B4B98470B4BE8
:1014300098470B4B98470B4B984708BDED28000089
:1014400000800041610F00009D1000004D11000060
:10145000611200006D13000095130000250F0000BD
:10146000A91300006D4100000122104BC3F8982021
:1014700003F500539B6BDA680D4B9A420DD00D4B70
:10148000022283F8442001200849C1F8940083F81F
:1014900054200022084B1A7070470122064B1A7024
:1014A0004FF48022054BDA60704700BF0080004196
:1014B0006807002000A000417807002000E100E05C
:1014C00030B40C88A4B244F001040C800C88A4B29F
:1014D00044F006040C800C88A4B224F01804BDF873
:1014E0000C50ED0005F018052C430C800C88A4B2BC
:1014F00024F44074A4B20C80032814D8DFE800F070
:101500000239254B088880B240F480600880088842
:1015100080B220F4006080B208801A4448684A60B3
:101520008A68264A8A600A8892B222F4805292B26D
:101530000A800A88C2F30C020A809BB24A884B8058
:10154000CB68029BCB6030BC70470A8892B222F411
:10155000806292B20A800A8892B222F4006292B249
:101560000A80174A126848684A608A68134A8A6083
:10157000D9E7088880B220F4806080B208800888AB
:1015800080B240F40060088048680C4848601A4403
:1015900088688A60C7E70A8892B222F4806292B2B1
:1015A0000A800A8892B222F4006292B20A804A68E3
:1015B000024A4A608A68034A8A60B4E72804004302
:1015C000145F000030060020F0B583B0164A937A0D
:1015D00043F0010393720122144B1A70144B1B78D1
:1015E00083B1002301931146124AC2F8941002F508
:1015F0000052022182F8441082F854100C4A1370F1
:1016000003B0F0BD0B4B0125C3F89850084E0024E1
:101610003470C3F8945021462046074FB8472146FE
:101620002846B8473470EBE7001800433007002025
:101630007807002000800041E12B00002DE9F04FE9
:1016400083B0DFF8B881614F02260196DFF8B091D0
:10165000CDF800901323D8F80420394600205C4DC3
:10166000A847D8F808B001965A4C009423235A464C
:1016700049460020A847584B1A68DFF88891019620
:10168000CDF800900B2321460020A84700240194A8
:10169000DFF874A1CDF800A003235A46494620463E
:1016A000A8470196DFF864B1CDF800B020234B4A7B
:1016B00051462046A8470196DFF854A1CDF800A076
:1016C0001323D8F80C2059462046A847D8F81020F4
:1016D0000194DFF84081CDF8008003235146204675
:1016E000A8470196CDF80090202322464146304677
:1016F000A847DFF824810196DFF82091CDF800900B
:101700001323224641460320A8470196DFF810A183
:10171000CDF800A02323224649460320A847DFF83E
:1017200004910196CDF800900B23224651460320E8
:10173000A8470196DFF8F0A0CDF800A023232246A9
:1017400049460320A8470196DFF8E0B0CDF800B085
:101750001323224651460320A8470194DFF8D0A066
:10176000CDF800A00323224659461846A847019603
:10177000CDF800902023194A403251460120A84755
:10178000174D184A31462846174B9847D8F80C3061
:10179000009398E80E002046144EB047FB68009373
:1017A00097E80E000120B0472846114B98470126C4
:1017B000104BC3F89460214620460F4DA8472146A0
:1017C0003046A84703B0BDE8F08F00BF20070020D7
:1017D000C11400004807002000000020700600200F
:1017E0008005002069140000691E0000692C0000BB
:1017F000411E000000800041E12B0000145F00004A
:1018000050060020000600202006002010070020BF
:10181000580700201006002060060020F006002077
:101820000007002068070020E0050020F0050020E8
:101830003807002008B5836903B1984708BD08B58B
:10184000C36903B1984708BD2DE9F04705468846AE
:101850009146036A5B5C876A03EB4303DE00BC19B5
:1018600004F1040AD1B250460C4B984728460C4B61
:101870009847012807D94FEA19215046074B984746
:10188000A38A0133A382A38A0133A382BB5913B174
:10189000414628469847BDE8F08700BF392400003C
:1018A0002B2800002DE9F84F894616461C469DF866
:1018B00028800B9D074648B151B15AB1B8F1000FCD
:1018C0000AD00DB1012008E0002006E0002004E06D
:1018D000002002E0002000E00020DFF868B03F2296
:1018E0005946DFF864A0D047601C40225946804525
:1018F000CCBF00200120D047002303E0FF22F25498
:101900000133DBB2A342F9D93E6287F8244087F85D
:101910002580BD6249463846064B9847034628B99C
:10192000054ABA60054A3A60054A7A601846BDE839
:10193000F88F00BF0127000049180000351800008B
:101940003F180000285F00004D2300002DE9F843F8
:101950000E46174698460546C0B1CAB1D3B9002015
:10196000DFF89C9066224946234CA04795F8240056
:1019700067224946B04234BF00200120A047296AAF
:101980008B5DFF2B2FD10024234607E00020E7E7E3
:101990000020E5E70120E3E70133DBB295F82420DE
:1019A000934205D8CA5CFF2AF6D00134E4B2F3E7CB
:1019B00095F825309C4219D8A86A04EB44034FEAF5
:1019C000C30948444246394604300C4B9847024606
:1019D00078B92B6A9C55AB6A99440023A9F8143056
:1019E0001046BDE8F8836FF00C02F9E76FF01B02B8
:1019F000F6E76FF00C02F3E74D230000AD23000083
:101A0000285F0000F8B50D460B4F04468322394687
:101A1000003018BF0120094EB04794F824008422FA
:101A20003946A84234BF00200120B047294620464D
:101A3000034B98470020F8BD285F00004D230000AD
:101A4000152800002DE9F8430E4615469946DFF8A3
:101A5000748004469C224146003018BF0120174F75
:101A6000B84794F824009D224146B04234BF00207C
:101A70000120B847236A9B5D012D18D02DB1022D9E
:101A800018D06FF00C00BDE8F883A16A03EB4303A4
:101A9000DA0041F8029019F1000318BF01232A4629
:101AA00031462046064CA0470020BDE8F883C4F824
:101AB0001890F0E7C4F81C90EDE700BF4D2300003C
:101AC00055280000285F00002DE9F04383B08946C7
:101AD00090461D460446002836D0002A36D0002BFA
:101AE00036D10020254FBC223946254EB04794F808
:101AF0002400BD223946484534BF00200120B047AC
:101B00002046204B984795FBF0F300FB1350BF2273
:101B10003946B0FA80F04009B047236A13F809301B
:101B2000A16A03EB4303DA0001EB020901A8164B9B
:101B3000984709F104073846144B9847064601A810
:101B4000134B984700240BE00020CBE70020C9E7A7
:101B50000120C7E70134A4B2414438460D4B9847F1
:101B60002146A64201D9AC42F4D3B9F814301B1B6C
:101B7000A9F81430204603B0BDE8F083285F0000C8
:101B80004D2300002B280000C11B00007924000019
:101B9000CF1B0000F123000010B50446D6220549F2
:101BA000003018BF0120044B98472046034B98474C
:101BB000002010BD285F00004D2300003F280000DA
:101BC000EFF31083036072B6BFF35F8F7047BFF30C
:101BD0005F8F036883F310887047000008B5024BDD
:101BE0001860024B984708BD50020020413E00009B
:101BF00010B5044B1C68044B984701462046034B24
:101C0000984710BD50020020DD2800004D3E000026
:101C100010B584B00389ADF80430144602924FF435
:101C20000043ADF80630039101A91438034B9847DF
:101C300010B9204604B010BD0446FAE75D35000037
:101C400010B584B00389ADF804301446029248F20E
:101C50000103ADF80630039101A91438034B9847EE
:101C600010B9204604B010BD0446FAE75D35000007
:101C700038B50D4604465E220849003018BF0120E1
:101C8000074B984729462046064B9847034618B904
:101C9000054AA261054A6261184638BD445F0000EA
:101CA0004D230000B5340000411C0000111C000051
:101CB00008B5014B984708BDE5340000C1F30901A0
:101CC00002F480620A4382831046704770B586B082
:101CD000044616461D468DF80710838BADF80C3070
:101CE000012304930023ADF80E300DF10703059393
:101CF00003A9094B9847034610B1184606B070BDBA
:101D000048F20103ADF80E300596049503A920466C
:101D1000014B98470346F0E75D350000143008603A
:101D20000020704770B50D461646044668B151B1A3
:101D3000012034220649074B98472368324629463A
:101D40002046984770BD0020F3E70020F1E700BF70
:101D5000605F00004D23000070B50D461646044636
:101D600068B151B101203D220649074B984763688D
:101D7000324629462046984770BD0020F3E70020F0
:101D8000F1E700BF605F00004D23000070B50D4615
:101D90001646044698220749003018BF0120064B1A
:101DA0009847334600222946A4F12000034CA0475F
:101DB00070BD00BF745F00004D2300000D3D0000AA
:101DC00070B50D461646044681220749003018BFFB
:101DD0000120064B984733462A460021A4F12000F3
:101DE000034CA04770BD00BF745F00004D2300008E
:101DF0000D3D000038B50C460546A8B191B1012053
:101E00003B220A490A4B9847284640F8044F21468E
:101E1000084B9847034618B9074AAA62074A6A62FC
:101E2000184638BD0020EBE70020E9E7745F0000AA
:101E30004D230000CD3A0000C11D00008D1D0000A3
:101E400010B5044651220549003018BF0120044B4B
:101E50009847201D034B984710BD00BF745F0000DA
:101E60004D230000553C000070B50D461646044653
:101E7000A8220649003018BF0120054B984732467A
:101E80002946201D034B984770BD00BF745F0000BA
:101E90004D230000893C000038B50D460446C0B112
:101EA000A9B1012040220C490C4B9847204640F82C
:101EB000045F29460A4B9847002807DB4FF400438C
:101EC000A382084B2361084BE360002038BD00204B
:101ED000E8E70020E6E700BF905F00004D23000028
:101EE0000D380000951F0000591F000010B5044672
:101EF00057220549003018BF0120044B9847201D88
:101F0000034B984710BD00BF905F00004D230000B9
:101F10009939000030B585B00C46054698B181B1BD
:101F20000120B32209490A4B98472368019363684B
:101F30000293A368039301A9281D064B984705B097
:101F400030BD0020EDE70020EBE700BF905F000010
:101F50004D230000CD39000070B584B00E46154603
:101F60000446A3220849003018BF0120074B9847B8
:101F7000002302930196039501A9A4F10C00044BE0
:101F8000984704B070BD00BF905F00004D23000073
:101F9000151F000070B584B00E4615460446872212
:101FA0000849003018BF0120074B984702960023CC
:101FB0000193039501A9A4F10C00044B984704B0C8
:101FC00070BD00BF905F00004D230000151F000092
:101FD00038B50D46044658B141B10120BD2205492E
:101FE000054B98470C342C60002038BD0020F5E7E5
:101FF0000020F3E7905F00004D230000F8B507686C
:1020000017B13C4600260BE00E4B9847F8BDA5687B
:102010002B449B1A01338D68AB4209D226462468B3
:1020200034B163689342F2D8A5689B1A2B44F2E757
:10203000BC4203D03046044B9847F8BD014B98474B
:10204000F8BD00BF6923000095230000F8B544697E
:10205000066901360661037E13F0010F05D1037E88
:1020600013F0020F01D1054609E0037E43F002039D
:102070000376F8BD6F69E368204698473C469CB1FB
:102080006368F31AA26893420ED305F11407384629
:10209000064B9847237C012BECD1666032462146E3
:1020A0003846034B9847E5E7F8BD00BF9D23000085
:1020B000FD1F000038B50D46044680B169B101200E
:1020C0003B220849084B984729462046074B98472A
:1020D00000202061064B236038BD0020F0E700207F
:1020E000EEE700BFAC5F00004D230000313F000071
:1020F0004D20000010B5044653220949003018BF96
:102100000120084B98472046074B984720B92046A6
:10211000064B9847002010BD6FF0100010BD00BFA7
:10212000AC5F00004D23000001410000ED400000C5
:1021300070B582B00D46044620B309B301207A225F
:102140001F49204B9847237E43F00103237604F177
:102150001406294630461C4B9847A8B923696B6082
:10216000226929463046194B9847237E03F0FE0327
:102170002376237E13F0020F12D1002002B070BD2F
:102180000020DCE70020DAE7237E03F0FE0323765D
:102190007F220B4900200B4B98476FF01100EDE7B1
:1021A00001A80B4B9847237E03F0FD0323762046BE
:1021B000084B984701A8084B98470020DEE700BF6E
:1021C000AC5F00004D23000053230000FD1F000002
:1021D000C11B000019410000CF1B0000F8B50E46DE
:1021E0001746054608B311B31ABB0020F122124965
:1021F000124B984705F108042046114B98470028D8
:10220000F8D00025715D20460E4B984720460C4BB8
:1022100098470028FAD00135BD42F3D320460A4B37
:1022200098470028FAD02846F8BD0020DEE70020B5
:10223000DCE70120DAE700BFC45F00004D230000A7
:102240009734000089340000A13400002DE9F041EA
:102250000F4690460546C8B1D1B1DAB900204FF417
:1022600086720D490D4B9847002605F1080420465B
:102270000B4B98470028F8D020460A4B9847B85592
:1022800001364645F1D33046BDE8F0810020E6E74F
:102290000020E4E70120E2E7C45F00004D230000D6
:1022A000AB3400008F34000038B50D460446A0B1B1
:1022B00089B1012034220A490A4B9847294604F182
:1022C0000800094B9847034618B9084A6260084A53
:1022D0002260184638BD0020ECE70020EAE700BF86
:1022E000C45F00004D230000493400004D2200006F
:1022F000DD21000010B5044653220649003018BF06
:102300000120054B984704F10800044B9847002032
:1023100010BD00BFC45F00004D23000075340000F5
:1023200038B50C46054650B139B10120692205493E
:10233000054B98472560002038BD0020F6E70020B7
:10234000F4E700BFC45F00004D23000000B900BEE9
:10235000704703681BB18B4203D01B68FAE700206B
:10236000704701207047000038B504460D46064B03
:10237000984780F0010039220449C0B2044B9847C5
:1023800023682B60256038BD53230000E05F000008
:102390004D23000003680B600160704703681BB1A8
:1023A0001A680260184670470020704770B50E46E4
:1023B0001546044678B181B18AB9002028220A491D
:1023C0000A4B98476B1E1D420BD163600020A06032
:1023D000E060266070BD0020F0E70020EEE70120FD
:1023E000ECE76FF00C0070BD006000004D230000B2
:1023F00038B50D460446A8B191B1012040220C49E0
:102400000C4B9847E268A3689A420DD02268616835
:102410000B40D35C2B70A3680133A360002038BD50
:102420000020EBE70020E9E76FF0090038BD00BFAE
:10243000006000004D23000038B50D4604465122CF
:102440000B49003018BF01200A4B98472268E36807
:1024500061680B40D554E368A2689A1A61688A42A1
:1024600001D9591AA1600133E360002038BD00BFD3
:10247000006000004D23000010B5044667220549A6
:10248000003018BF0120044B9847E068A368C01AC9
:1024900010BD00BF006000004D23000000F13D4072
:1024A000A0F5E050C0F387207047000008B54069F0
:1024B000034B98474000C0B2763000F0FE0008BDE4
:1024C0009D240000034B984200D07047024B1960D6
:1024D000FBE700BF002000435402002010B4604B13
:1024E000984200F09C805F4B984200F0A880002248
:1024F000036B13F0010F1BD1036B13F0030FFBD120
:10250000038813F0020F0DD003889BB223F002035F
:102510009BB20380036B13F0030FFBD1036B13F02B
:10252000020FFBD101230380036B13F0030FFBD1D8
:10253000036B13F0010FFBD1A0F8482016234A4A81
:1025400003FB01239B88C380036BC3F30B03002BA6
:10255000FAD11623444A03FB01239B790372036BD0
:10256000C3F30B03002BFAD116233F4A03FB0123CD
:10257000DA7982701B898380036BC3F30B03002B12
:10258000FAD11623384A03FB01239B7A8372036B2B
:10259000C3F30B03002BFAD11623334A03FB0123A9
:1025A000DB7AC372036BC3F30B03002BFAD1162340
:1025B0002D4A03FB01239B898381036B13F0800F5A
:1025C000FBD11623284A03FB0123DB89C381036B5C
:1025D00013F4807FFBD11623234A03FB01231B8ABC
:1025E0000382036B13F4007FFBD116231E4A03FB07
:1025F00001235B8A4382036B13F4806FFBD11622A5
:10260000194B02FB01310B7DC3704B880380036BB8
:1026100013F0030FFBD100205DF8044B70474FF01F
:1026200080131B685A09120202F4E0621C0A24019A
:1026300004F070042243C3F382031A4358E74FF0B7
:1026400080131B68DA0C120202F4E0629C0D240174
:1026500004F070042243C3F302431A4348E700BF67
:10266000001C0043002000432460000008B54269BC
:1026700092F82E1092F82D300B4013F0010F06D176
:1026800013F0020F0DD113F0040F11D108BD012377
:1026900082F82E308368B2F8402092B20021984729
:1026A00008BD022382F82E3043680021984708BDF8
:1026B000042382F82E30036800219847E6E70000E3
:1026C00008B50B4B984700233BB18A2209490020EB
:1026D000094B98470023184608BD162202FB03F257
:1026E00006498A5C9042F6D00133DBB2ECE700BFCA
:1026F0009D2400003C6000004D2300002460000089
:102700002DE9F0410D460446EC223B49003018BF4C
:1027100001203A4B98472846394B984701462846AE
:10272000384B9847064610B13046BDE8F0816561E8
:1027300021462846344B98472046344FB847430932
:1027400000F01F00012505FA00F0DFF8C4802033F7
:1027500048F82300BFF34F8FBFF36F8F2046B84771
:10276000430900F01F0005FA00F0603348F8230029
:102770002046B847430900F01F00854048F8235021
:102780002046B84780B2013080B203B2002B0CDB88
:102790005B0900F01F00012202FA00F0203348F824
:1027A0002300BFF34F8FBFF36F8F2046174B98471F
:1027B00080B2013080B203B2002B09DB5B0900F06C
:1027C0001F00012202FA00F06033114A42F8230090
:1027D00020460E4B984780B2013080B203B2002BE6
:1027E000A2DB5B0900F01F00012202FA00F0084A98
:1027F00042F8230098E700BF3C6000004D23000032
:10280000C1260000DD240000C5240000AD24000026
:1028100000E100E0426913889BB243F00203138099
:10282000136B13F0030FFBD170474369DB88C3F3CD
:10283000C103032B01D00220704701207047426979
:10284000137D43F002031375136BC3F30B03002BCB
:10285000FAD170474169012A07D0022A0ED01AB96D
:10286000ABB1012381F82D3070471BB9042381F8E7
:102870002C307047042381F82D3070471BB9022398
:1028800081F82C307047022381F82D3070470123E6
:1028900081F82C307047000008B5024B1868024BD5
:1028A000984708BD540200206D26000008B5024B71
:1028B0001868024B984708BD540200206D2600009E
:1028C000430900F01F00012202FA00F04033024ADF
:1028D00042F82300704700BF00E100E0642303FBDF
:1028E00000F04FF47A7303FB00F0704708B50D4A0F
:1028F00013889BB243F4C06313800B4B98470B4B78
:1029000098470B4B98470B4B984740F6FF700A4B84
:1029100098470A4A136943F400731361084B9847B8
:1029200008BD00BF00400041FD2C00001D2D00002F
:10293000F12C0000392D0000952C0000000800400B
:10294000C529000008B51D4A138C03F01F031C485D
:1029500000EB0310128C12F4807F0AD1174A128CFC
:1029600012F4007F10D1154A128C12F4806F17D127
:1029700008BD1B0103F1824202F52042012182F8C9
:102980004E104368984708BD1B0103F1824202F5CF
:102990002042022182F84E10094AD358984708BDB8
:1029A0001B0103F1824202F52042042182F84E10FD
:1029B000034A13449B689847DAE700BF00A0004130
:1029C0005802002030B43D4A13889BB223F0020322
:1029D0009BB2138053889BB223F47C539BB25380E9
:1029E00013889BB243F001031380344B1B8813F010
:1029F000010FFAD1314A4FF470631380537B03F017
:102A0000FE0343F001035373002353612C495163C8
:102A10002C49916316E02C4A52F83350274C191D6B
:102A200009016018655002EBC302117941715179B7
:102A30008171D48822491A0188188C520022C26000
:102A40000133DBB21F2BE6D900230AE003F11F019B
:102A50000AB2002A10DA002A1CDA002A24DA01332A
:102A6000DBB2042BF2D9154A13889BB243F0020360
:102A70001380002030BC7047500901F01F0501246D
:102A8000AC402030114D45F82040BFF34F8FBFF3CD
:102A90006F8FE0E7500901F01F050124AC40603062
:102AA0000A4D45F82040D8E7520901F01F010120E6
:102AB00000FA01F1054840F82210D0E700A00041DB
:102AC00080070020800900205460000000E100E041
:102AD00091B942B9000100F1824000F52040022383
:102AE00080F84C307047000100F1824000F5204032
:102AF000022380F84D307047012902D0022912D0FC
:102B000070473AB9000100F1824000F5204080F89A
:102B10004C107047000100F1824000F52040012375
:102B200080F84D30704742B1000100F1824000F55D
:102B30002040042380F84D30E2E7000100F182409C
:102B400000F52040042380F84C307047024B03EB23
:102B5000001081600020704780070020024B03EBCB
:102B6000001041600020704780070020054A0001E6
:102B7000135A9BB223F4806343EA812189B2115234
:102B8000002070478007002030B4144C0201A318C5
:102B90009D68A35AC3F30123A25A12F4006F06D012
:102BA00001FA03F42C440D4A02EB001294600B4C22
:102BB0000201A5186D68A25A12F4806F05D001FABF
:102BC00003F32B4404EB0012536089B2034B03EB75
:102BD00000104180002030BC704700BF80070020FB
:102BE00010B40C4C0201A35A9BB243F00103A35250
:102BF000094C031D1B01E25842F00202E25029B1C8
:102C0000012303FA00F022691043206100205DF8DF
:102C1000044B70478007002000A00041024B03EBEB
:102C200001110160002070475802002008B5014BD7
:102C3000984708BD4529000008B5014B984708BDD5
:102C40004529000008B5014B984708BD45290000FB
:102C500008B5014B984708BD4529000008B5014B50
:102C6000984708BD4529000084B070B485B0064679
:102C700009A880E80E000FC88DE80F00044D05EB91
:102C8000061585E80F0005B070BC04B0704700BFA2
:102C90008007002010F0010F08D0114A114B1A6272
:102CA000104B5A6843F6FD731A42F9D110F0040F25
:102CB00008D00D4A0B4B9A620A4B5A6843F6FD73D3
:102CC0001A42F9D110F0080F08D0084A054BDA6211
:102CD000044B5A6843F6FD731A42F9D1704700BF9E
:102CE00008010100001C0040011101000501010064
:102CF0000122014B5A71704700080040064B42F216
:102D000086029A8200229A75DA75DA6902F47C5298
:102D1000DA6101221A74704700140040044A054B1E
:102D20009A61044B1B6913F0020FFAD0704700BF81
:102D3000062600030010004031220E4B9A640D4B12
:102D40001B6D13F0060FFAD10A4B0B4ADA6402220C
:102D500083F84420074B1B6D13F0020FFAD1054B8B
:102D60005B6D13F0010F04D1024B5B6D13F0020F8A
:102D7000F5D07047001000406000020000B583B03D
:102D80000D4B9B78DBB20193019B13F0020F06D031
:102D90000A4B1B681BB1084A5068984709E0019B21
:102DA00013F0010F05D0054B5B6813B1024A506860
:102DB000984703B05DF804FB00000241800B00203F
:102DC00070B489B006466C460C4D0FCD0FC495E823
:102DD0000F0084E80F00002007280AD808AB03EB97
:102DE000800353F8203CB34201D00130F4E7C0B275
:102DF00000E0002009B070BC704700BF54610000C3
:102E0000C36913F0010F09D1036843F002030360A3
:102E1000C36913F0030FFBD1002070476FF003006C
:102E20007047C36913F0040F09D1436843F40033BA
:102E30004360C36913F0170FFBD1002070476FF098
:102E400003007047C36913F0040F09D1436823F4EA
:102E500000334360C36913F0170FFBD100207047A4
:102E60006FF003007047283070472830704700002B
:102E700008B5044B9847052801D0002008BD012063
:102E800008BD00BFC12D000008B5044B98470528B8
:102E900001D0002008BD012008BD00BFC12D0000E9
:102EA00008B5074B9847072807D8DFE800F0040467
:102EB000040404060404012008BD002008BD00BF6E
:102EC000C12D000008B5C3689B6803B1984708BDD1
:102ED00008B5C368DB6803B1984708BD08B5C36887
:102EE0005B6803B1984708BD08B5C3681B6903B1A7
:102EF000984708BD08B50C4B9847002343B14FF4E1
:102F000012720A4900200A4B98470023184608BD50
:102F100003EB4302D100074A0A4492F82020904272
:102F2000F4D00133DBB2E9E7C12D0000D861000025
:102F30004D2300005461000038B504463C4B9847CF
:102F4000E36913F0010F22D100EB4003DA00394BA3
:102F500013445A6A02F01C02E36913F0030FFBD119
:102F6000236813F0020F0BD0236823F002032360C1
:102F7000E36913F0030FFBD1E36913F0020FFBD1F8
:102F800042F001022260E36913F0030FFBD1E36911
:102F900013F0010FFBD100EB4003DA00254B134483
:102FA0005B6A2360E36913F0030FFBD100EB40037E
:102FB000DA00204B13449B6A6360E36913F01F0F30
:102FC000FBD142000244D1001A4B0B44DA6AA260E2
:102FD0005B6A13F4005F0AD113F4C04F07D100EB12
:102FE0004003DA00134B13441B8EA3810FE0420011
:102FF0000244D1000F4B0B44198EA28961F30C02DD
:10300000A28193F83220A38962F34F33A381094A46
:1030100043001D18E9000D46114491F83310A173C7
:103020002A4492F8343084F83030002038BD00BF94
:10303000F52E00005461000008B50D4B98470023A1
:1030400043B140F2A7320B4900200B4B98474FF099
:10305000FF3008BD03EB4302D100084A0A4492F84E
:103060003820904202D00133DBB2E9E758B208BD04
:10307000C12D0000D86100004D2300005461000004
:1030800038B505460C460846334B9847C0B2E3694D
:1030900013F0010F22D100EB4003DA002F4B134451
:1030A000DA6B02F01C02E36913F0030FFBD1236813
:1030B00013F0020F0BD0236823F002032360E369AF
:1030C00013F0030FFBD1E36913F0020FFBD142F0C1
:1030D00001022260E36913F0030FFBD1E36913F0EF
:1030E000010FFBD100EB4003DA001C4B1344DB6BF8
:1030F0002360E36913F0030FFBD100EB4003DA0018
:10310000164B13441B6C6360E36913F0040FFBD18F
:1031100042000244D100114B0B445A6CE26093F818
:103120003F3003F00303AB81012B94BF0023012345
:10313000626A22F4804242EA83336362E36913F0F5
:10314000040FFBD100EB4000C200044B1344B3F862
:103150004A30EB81002038BD393000005461000056
:1031600070B5054604692668C6F3C06640F2A652EB
:103170009949003018BF0120984B98476B68012B84
:1031800057D0636823F480236360E36913F0040F6E
:10319000FBD12B8813F4806F56D06A8812F0010F90
:1031A00004D06A8892B242F480626A8040F2FE7271
:1031B00002EA4302E36913F0040FFBD1636A03F4EC
:1031C0008043134343F400436362E36913F0040F45
:1031D000FBD12E694FF6FF72337EDBB21846511ECB
:1031E0001AB10A4613F0030FF6D02268C2F3C06288
:1031F000E36913F0040FFBD1638B9BB210F0010F56
:1032000000F09C8013F0020F32D0012222766A88EF
:1032100092B242F480526A806A8892B222F480723A
:1032200092B26A8013F0010F00F0D1806FF00400B9
:1032300070BD002EA5D0636843F480236360E3690A
:1032400013F0040FFBD1A4E75B00DBB26A8802F045
:1032500001021A43E36913F0040FFBD1636A03F41C
:10326000804313436362E36913F0040FFBD1B0E7BB
:1032700013F0040F1FD16B8813F4806F39D02B88A3
:103280001B125B0003F00602E36913F0040FFBD18D
:10329000636A03F48043134343F0F1036362E36919
:1032A00013F0040FFBD16B889BB223F480639BB2B5
:1032B0006B80002070BD6B68002B04DD6B889BB2B7
:1032C00043F480536B806B8813F4004F08D16B88F4
:1032D0009BB223F480739BB26B806FF0010070BDD2
:1032E000636843F440336360E36913F0040FFBD178
:1032F000EDE7686898B96B8813F4004F06D16B88C6
:103300009BB223F480739BB26B8070BD636843F4FF
:1033100040336360E36913F0040FFBD1EFE7AB6860
:103320001B78A362E36913F0040FFBD1AB68013390
:10333000AB606B68013B6B60002070BD10F0020F4A
:1033400048D0696800293DD013F0040F3AD1013903
:10335000696001B9E2B1012918D06B684BB96B887B
:1033600013F4004F1DD16B889BB223F480739BB282
:103370006B80AA68531CAB60E36913F0040FFBD1A8
:10338000A36A137002232376002070BD002AE4D0C4
:10339000636843F480236360E36913F0040FFBD197
:1033A000DBE7636823F480736360E36913F0040F61
:1033B000FBD1636843F440336360E36913F0040FA7
:1033C000FBD1D0E7022323766FF0010070BD6FF0D0
:1033D000030070BD002070BDD86100004D230000C7
:1033E00010B5044668B103684BB1012040F6FE32C7
:1033F0000549064B98472068054B984710BD0020AB
:10340000F4E70020F2E700BFD86100004D23000080
:10341000232E000010B5044668B103684BB10120AB
:1034200040F605420549064B98472068054B9847EA
:1034300010BD0020F4E70020F2E700BFD8610000D3
:103440004D230000452E000038B50C460546BC2231
:103450000549003018BF0120044B98472C602046D6
:10346000034B984738BD00BFD86100004D230000D2
:10347000392F00000268136843F002031360D36918
:1034800013F0030FFBD1704703689962704703681C
:10349000986AC0B270470368187E00F00100704758
:1034A0000368187EC0F3400070470368187EC0F3BD
:1034B0008000704738B50D46044640F2195206495F
:1034C000003018BF0120054B98472561294620464A
:1034D000034B984738BD00BFD86100004D23000062
:1034E0008130000070B51B4E044640F23652314622
:1034F000003018BF0120184DA847246940F2066229
:103500003146201C18BF0120A847236843F002035E
:103510002360E36913F0030FFBD104214FF6FF7220
:10352000E36913F0040FFBD1638BC3F30113012B89
:103530000BD0013A002AF3DC013908D01023638351
:10354000E36913F0040FFBD1E8E7002070BD6FF0D2
:10355000050070BDD86100004D2300002DE9F04149
:1035600005460E460469DFF8A08240F2D15241467A
:10357000003018BF0120A24FB847286940F2D2524C
:103580004146003018BF0120B84740F2D3524146AF
:10359000301C18BF0120B8476B8813F4807F40F0BF
:1035A0002A8173889BB243F48073738096E8070086
:1035B00085E80700636843F480736360E36913F090
:1035C000040FFBD128468F4B98470346002800F094
:1035D000B0806A8892B222F4807292B26A80BDE8AA
:1035E000F0816FF00400B7E0738813F4004F07D147
:1035F0006B889BB223F480739BB26B80BDE8F08133
:10360000636843F440336360E36913F0040FFBD154
:10361000EEE713F0040F1FD16B8813F4806F39D0DD
:103620002B881B125B0003F00602E36913F0040F02
:10363000FBD1636A03F48043134343F0F1036362F5
:10364000E36913F0040FFBD16B889BB223F4806312
:103650009BB26B8000206BE06B68002B04DD6B88F5
:103660009BB243F480536B806B8813F4004F08D1F6
:103670006B889BB223F480739BB26B806FF0010068
:1036800056E0636843F440336360E36913F0040F6A
:10369000FBD1EDE7686898B96B8813F4004F06D149
:1036A0006B889BB223F480739BB26B8040E06368AD
:1036B00043F440336360E36913F0040FFBD1EFE799
:1036C000AB681B78A362E36913F0040FFBD1AB680E
:1036D0000133AB606B68013B6B60002028E017F0A2
:1036E000020F00F083806968002977D013F0040F7F
:1036F00074D10139696009B9002A55D0012951D026
:103700006B684BB96B8813F4004F56D16B889BB232
:1037100023F480739BB26B80AA68531CAB60E3698F
:1037200013F0040FFBD1A36A137002232376002049
:1037300003466A8812F4807F5AD028694FF6FF72D8
:10374000037EDBB21F46511E002A3FF44AAF0A46F1
:1037500013F0030FF4D0002000287FF445AF226857
:10376000C2F3C062E36913F0040FFBD1638B9BB219
:1037700017F0010FB3D013F0020F3FF44AAF01224C
:1037800022766A8892B242F480526A806A8892B243
:1037900022F4807292B26A8013F0010F23D06FF08E
:1037A0000400C5E7002AABD0636843F4802363605C
:1037B000E36913F0040FFBD1A2E7636823F480737D
:1037C0006360E36913F0040FFBD1636843F4403393
:1037D0006360E36913F0040FFBD197E702232376BC
:1037E0006FF00100A4E76FF00300A1E700209FE75E
:1037F0001846BDE8F0816FF00500BDE8F08100BF1C
:103800004D23000061310000D861000070B505460D
:103810000C4608465B4B98470023012B0ED803EB60
:103820000311594A0A4492F87020904202D00133A1
:10383000DBB2F2E70E46554B1E4400E00026002D99
:1038400067D0002C63D001204FF414625049514BD3
:103850009847002E00F09280E36913F0010F1DD10C
:10386000336803F01C02E36913F0030FFBD12368F4
:1038700013F0020F0BD0236823F002032360E369E7
:1038800013F0030FFBD1E36913F0020FFBD142F0F9
:1038900001022260E36913F0030FFBD1E36913F027
:1038A000010FFBD12C60336803F01C03082B32D0CE
:1038B000002C5FD0002E5BD0012040F60A12344964
:1038C000344B9847336823F4817323F0010323605A
:1038D000E36913F0030FFBD1736823F4383323F447
:1038E000107343F400336360E36913F0170FFBD1E7
:1038F000337B2373737B84F83030736813F0070FC6
:103900003AD101232B71F389EB80002070BD002098
:103910009AE7002098E74CB336B3012040F61E1218
:103920001B491C4B9847336823F4817323F0010330
:103930002360E36913F0030FFBD1736823F40833AA
:1039400023F4107343F4003343F410736360E369AA
:1039500013F0170FFBD1B3686362737B84F83030C8
:10396000E369002BFCD1C8E70020D7E70020D5E7AA
:103970000020A2E70020A0E70223C3E76FF00C00BD
:1039800070BD00BFC12D000054610000B461000093
:10399000D86100004D23000010B5044668B10368EB
:1039A0004BB1012040F69F120549064B984720680D
:1039B000054B984710BD0020F4E70020F2E700BF58
:1039C000D86100004D230000012E0000F0B587B043
:1039D00007460D4604680B6801934B680293002369
:1039E000039304930679B8B1A4B1012040F6A42250
:1039F0003449354B9847E36913F0070F5FD1E3690A
:103A000013F0030FFBD1236813F0020F1ED16FF0E8
:103A1000130052E01846E9E70020E7E700222BE018
:103A200091F801E040EA0E20023101910132039247
:103A3000A06213F0800F32D10020002837DB0398FA
:103A4000AB68984202D3049A934230D9237EDBB20A
:103A500013F0040FE2D0A16A029A4AB1501C0290FE
:103A60001170012E04D9901C0290C1F307215170EE
:103A7000049A013204920122002ADAD1039A0499AD
:103A80009142D6D3F88813F0010FD2D001990029C2
:103A9000CCD0481C01900878012EC1D8C6E74FF65B
:103AA000FF736383802323766FF01200C5E7237EC4
:103AB00013F0030FFBD00323237607B0F0BD6FF0A4
:103AC0000300FAE7D86100004D23000070B50546F9
:103AD0000C460846524B98470023012B0ED803EBA7
:103AE0000311504A0A4492F87020904202D00133E8
:103AF000DBB2F2E70E464C4B1E4400E00026002DE0
:103B000071D0002C6DD0012040F6B3424749484B9C
:103B10009847002E00F08180E36913F0010F1DD15A
:103B2000336803F01C02E36913F0030FFBD1236831
:103B300013F0020F0BD0236823F002032360E36924
:103B400013F0030FFBD1E36913F0020FFBD142F036
:103B500001022260E36913F0030FFBD1E36913F064
:103B6000010FFBD12C60002C41D0002E3DD0012054
:103B700040F60A122D492E4B9847336823F481737F
:103B800023F001032360E36913F0030FFBD1736893
:103B900023F4383323F4107343F400336360E36990
:103BA00013F0170FFBD1337B2373737B84F8303012
:103BB0002046204B9847E0B920461F4B98470146C6
:103BC00005F11C001D4B9847EB69DD60EB691C4A51
:103BD0001A60EB691B4A5A60EB691B4A9A60002025
:103BE00070BD002090E700208EE70020C0E7002095
:103BF000BEE72046154B9847014605F11C000F4BC8
:103C00009847EB69DD60EB69114A1A60EB690D4A70
:103C10005A60EB690C4A9A60CEE76FF00C0070BDF9
:103C2000C12D000054610000B4610000D8610000A3
:103C30004D230000892E0000712E00001D2C000075
:103C4000DD2E0000E92E0000D12E0000A12E000084
:103C5000C52E000010B5044668B103684BB10120C1
:103C600040F6E1420549064B98472068054B9847C6
:103C700010BD0020F4E70020F2E700BFD86100008B
:103C80004D230000012E000070B50546144603299F
:103C900035D8DFE801F0020D2A186A600068184B79
:103CA0009847221C18BF01220021164B984770BD6F
:103CB000AA600068144B9847221C18BF01220021FB
:103CC000104B984770BD2A6100680F4B984700342D
:103CD00018BF0124224601210A4EB0472868084B2C
:103CE000984722460121B04770BDEA600068064B44
:103CF0009847221C18BF01220221024B984770BD31
:103D0000712E0000D12A0000A12E00002DE9F047FD
:103D10000446884616461F4605682846354B984790
:103D20000023012B0ED803EB0311334A0A4492F807
:103D30007020824202D00133DBB2F2E72F4B03EB5B
:103D4000010A01E04FF0000A28462D4B98478146B2
:103D500028462C4B98470546002E32D020462A4B49
:103D600098472068294B984701464846284B984772
:103D700031464846274B984739464846264B984790
:103D800000214846254B9847B8F1000F1DD0414609
:103D900028461F4B98472068214B984701462846E4
:103DA0001C4B9847012128461E4B98473946284608
:103DB000194B984700212846184B98470020BDE82A
:103DC000F0872046184B9847DEE70AF10E01284697
:103DD0000F4B98472068124B9847014628460D4BD9
:103DE0009847002128460F4B9847394628460A4BEA
:103DF0009847DFE7C12D000054610000B461000066
:103E0000A12E0000712E0000E1330000672E00009B
:103E10005D2B00004D2B0000892B0000E12B0000E2
:103E20006B2E00006D2B000015340000034B6FF06B
:103E30007F425A6005221A60704700BF10E000E020
:103E400008B5014B984708BD2D3E0000080E0DE057
:103E50000D4B6FF07F40586098600B4B1B6813F45C
:103E6000803FFAD001F17F4101311046431EDAB2A2
:103E70000028EDD1044B59609960034B1B6813F483
:103E8000803FFAD0704700BF10E000E008B5C3687B
:103E90009A7A12F0010F00D108BD01229A720368CC
:103EA0009847F9E7034B984200D07047024B1960DE
:103EB000FBE700BF003800405804002070B588B010
:103EC00006466C46174D0FCD0FC495E80F0084E8E9
:103ED0000F000023072B0AD808AA02EB830252F82E
:103EE000202CB24201D00133F4E7DBB200E0002322
:103EF00000224AB14FF49F720B4900200B4B9847A8
:103F00004FF0FF3008B070BD02EB82018800054918
:103F1000014491F82010994202D00132D2B2E8E770
:103F200050B2EFE7F4610000286200004D2300006A
:103F300070B506460C460846664B98470546F46041
:103F40008F2265490120654B9847236913F0010FC3
:103F500019D1236913F0030FFBD1236813F0020F6B
:103F60000BD0236823F002032360236913F0030FAF
:103F7000FBD1236913F0020FFBD1012323602369D6
:103F800013F0030FFBD1236913F0010FFBD105EBF5
:103F900085039A00524B13445B6A2360236913F034
:103FA000030FFBD1AA002A4491004D4B0B4493F818
:103FB0002A20E2731A8DE280012222735B6A03F0E9
:103FC0000C03082B56D0002B63D105EB85039A0018
:103FD000434B13449B8DA383236913F0C00FFBD184
:103FE0000023E383236913F0C00FFBD10123637225
:103FF000314620463B4B984705EB85039A00384BEA
:104000001344B3F92230002B0DDB5A0903F01F03D0
:10401000012101FA03F32032334941F82230BFF382
:104020004F8FBFF36F8F05EB85039A002C4B134422
:10403000B3F92230002B09DB5A0903F01F030121D9
:1040400001FA03F36032284941F8223005EB850577
:10405000AA00234B1344B3F92230002B08DB590983
:1040600003F01F03012202FA03F31F4A42F8213032
:10407000002070BD1A4B0B44DB6AE361236913F027
:10408000C00FFBD100232362236913F0C00FFBD1C3
:10409000ACE7042BAAD105EB85039A00104B13441F
:1040A00093F82C302377236913F0C00FFBD1002342
:1040B0006377236913F0C00FFBD105EB85039A00EA
:1040C000074B134493F82B30E376236913F0200F4A
:1040D000FBD18BE7BD3E0000286200004D230000AD
:1040E000F4610000A53E000000E100E0C268136832
:1040F00043F002031360136913F0030FFBD1704701
:10410000C268136913F0030FFBD11068C0F34000BD
:10411000704700207047000010B5C068094B9847F1
:10412000044640F2111208490120084B984704EB5D
:104130008404A200064B134493F82200054B9847D1
:1041400010BD00BFBD3E0000286200004D230000EE
:10415000F4610000C128000008B5024B1868024B4A
:10416000984708BD580400208D3E0000294B1B696C
:1041700013F0010F20D1274B1B6913F0030FFAD165
:10418000244B1B6813F0020F0ED0224A136823F051
:10419000020313601F4B1B6913F0030FFAD11D4B71
:1041A0001B6913F0020FFAD101221A4B1A60194B46
:1041B0001B6913F0030FFAD1164B1B6913F0010FA3
:1041C000FAD14FF48062134B1A60124B1B6913F043
:1041D000030FFAD10F4B00225A71FF221A710122EC
:1041E0001A7341F669029A830A4B1B6913F0C00FD8
:1041F000FAD1084B01225A72FE221A721A6842F052
:1042000002021A60034B1B6913F0030FFAD100205E
:10421000704700BF00180043074A13780133DBB230
:104220001370642B02D90122034B1A70034B1B68D5
:10423000014A12781A7070475C0400207400002054
:1042400038B5394B5B681B78DBB2102B2DD009D900
:10425000842B4AD022D8812B5DD0822B5ED1334B68
:10426000984738BD022B43D00AD9042B27D0082BFE
:1042700054D12D4BDC682E4B984780B2208038BD3E
:10428000012B4BD1284CE56A2A4B984780B22880F5
:10429000246B294B984780B2208038BD882B0BD0E7
:1042A000902B3BD1254B984738BD1F4B9C68244B26
:1042B000984780B2208038BD224B984738BD1A4CB1
:1042C0002569214B984780B2288065691F4B984724
:1042D00080B22880A5691E4B984780B22880E46987
:1042E0001C4B984780B2208038BD1B4B984738BD87
:1042F0001A4B98470C4C256A194B984780B2288076
:10430000656A184B984780B22880A46A164B984774
:1043100080B2208038BD154B984738BD024B1B68D2
:104320000F221A7038BD00BF7400002095500000A5
:104330008D4C00009D46000091460000A14D0000FC
:104340005D4D0000C94C0000CD4B0000214C000029
:104350002D4C0000814C0000514A00009D5100008E
:10436000615200006D520000555200005947000094
:1043700010B5044C04492046044B98472046044B92
:10438000984710BDB0050020900B002021230000AD
:10439000F522000070B50D4C0223E3600C4B236145
:1043A000012323750A2222620A4A626284F82830B5
:1043B000094D211D2846094EB04704F11801284631
:1043C000B0472846064B984770BD00BF5C040020EC
:1043D0004142000019420000640500203121000024
:1043E000F520000008B5234C636882221A70224B26
:1043F000984763681B78DB09204A82F82C3092F8D2
:104400002C30DBB2012B12D01D4B9847194B5B6847
:104410001B78DBB2102B22D00CD9842B24D01AD8D5
:10442000812B24D0822B0AD1164B984719E0164BCA
:104430009847EBE7022BF7D006D8012B17D00D4B8E
:104440001B680F221A700CE0042B0DD0082BF6D13C
:104450000E4B984705E0882BFAD0902BEFD10C4BF0
:1044600098470C4B9847FEE70B4B9847F9E70B4BE7
:104470009847F6E774000020D10200005C04002099
:104480003D160000694E000071430000FD4D000024
:10449000514D00009543000051480000394500008F
:1044A000704700002DE9F04182B00092984602ABBF
:1044B00003F8011D0A4C4FF48045C4F81451094F0C
:1044C000012219463868084EB047424669463868A6
:1044D000B047C4F81851002002B0BDE8F08100BF19
:1044E00000800041100C0020251D00002DE9F04146
:1044F00082B01746984602AB03F8011D0A4C4FF4F0
:104500008045C4F81451094E012219463068084B01
:104510009847424639463068064B9847C4F81851C8
:10452000002002B0BDE8F08100800041100C0020A6
:10453000251D0000591D00002DE9F84F424E434C47
:1045400031462046424B98472046424B9847424CC2
:104550004FF48045C4F81451DFF824A101225146DC
:104560003068DFF82081C04701223C4930683C4B6D
:104570009847C4F81851394B1B78384AD370394FD3
:104580004E237B70384B7B60384BBB604FF0000391
:10459000BB70C4F8145102220AF104013068C0470C
:1045A000C4F81851324BFB603846324B9847DFF85D
:1045B000D8B08BF80000DFF8D490394648462E4B2F
:1045C00098478BF800004FF0000389F8033005236B
:1045D00089F8003089F8013089F802303946032023
:1045E000264B98478BF80000C4F8145102220AF1B8
:1045F00004013068C047C4F81851C4F814510AF1D6
:104600000607012239463068C04701221349306845
:10461000134B9847C4F81851C4F8145102220AF1F8
:1046200008013068C047C4F81851C4F81451012279
:1046300039463068C047012208493068084B98471E
:10464000C4F81851BDE8F88F100C002008050020B0
:10465000D11F0000ED1E00000080004194040020E6
:10466000591D0000A80B0020ED440000A5440000E7
:10467000F11B000069060000E90600005D0700006C
:1046800024010020251D0000DC0B0020A00B0020D1
:10469000014B1888704700BF0C0C00202DE9F04139
:1046A0001E4E1F4D314628461E4B98471E4C20700B
:1046B000DFF8A0803246696840461C4B984720705E
:1046C000324669681A481B4B984720703246696821
:1046D00019481A4B98472070194F324629683846B6
:1046E000184B98472070D8F80000174B1870020A32
:1046F0005A70020C9A70020EDA703B68134A1370FB
:1047000019125170191491701B0ED370104B5B89E4
:1047100000EB430080B2BDE8F08100BFA80B002091
:10472000000C002089070000DC0B00209D08000021
:10473000080C0020F5090000980B0020510C000027
:104740000C0C002009080000E40B0020E00B002006
:1047500024010020E80B00202DE9F0412B4E2C4DC8
:10476000314628462B4B98472B4C2070DFF8DC80D5
:10477000324669684046294B98472070324669683E
:104780002748284B98472070324669682648274BAF
:1047900098472070264F324629683846254B98475F
:1047A000207025494B89D8F800201344C8F8003000
:1047B0005FFA83F8214A82F80080C3F3072C82F85D
:1047C00001C0C3F3074E82F802E01B0ED3703A68B3
:1047D000D6B21B480670C2F307254570C2F30744E2
:1047E0008470120EC27081F80D8081F80EC081F8BD
:1047F0000FE00B744E748D74CC740A750A220C3160
:10480000104B1868104B9847BDE8F081A80B0020AA
:10481000000C002089070000DC0B00209D08000030
:10482000080C0020F5090000980B0020510C000036
:104830000C0C00200908000024010020E40B0020DB
:10484000E00B0020900B0020251D0000E80B00204D
:104850002DE9F047754E764C31462046754B98470A
:104860002046754B9847754C4FF48045C4F8145159
:10487000DFF8D081042208F118013068704FB84782
:10488000C4F81851C4F81451022208F11C01306810
:10489000B847DFF8B4A1022251463068DFF8AC9186
:1048A000C847C4F81851C4F81451042208F1200173
:1048B0003068B847C4F81851C4F81451022208F1FE
:1048C00024013068B847022251463068C847C4F80E
:1048D0001851C4F81451042208F128013068B8476F
:1048E000C4F81851C4F8145108F12C09042249469F
:1048F0003068B847C4F81851C4F81451042208F1BC
:1049000030013068B847C4F81851C4F81451042273
:1049100008F134013068B847C4F81851C4F814518C
:1049200008F1380A042251463068B847C4F81851D3
:10493000C4F81451042208F13C013068B847C4F8A7
:104940001851C4F81451042208F140013068B847E6
:10495000C4F81851C4F81451042208F14401306815
:10496000B847C4F81851C4F81451042251463068AD
:10497000B847C4F81851C4F81451042208F148018A
:104980003068B847C4F81851C4F81451042208F12B
:104990004C013068B847C4F81851C4F814510422C7
:1049A00008F150013068B847C4F81851C4F81451E0
:1049B000042208F154013068B847C4F81851C4F80B
:1049C0001451042249463068B847C4F81851C4F855
:1049D0001451042208F158013068B847C4F818513E
:1049E000C4F81451042208F15C013068B847C4F8D7
:1049F0001851C4F81451042208F160013068B84716
:104A0000C4F81851C4F81451042208F16401306844
:104A1000B847C4F81851C4F81451042208F16801C9
:104A20003068B847C4F81851BDE8F087100C002072
:104A300008050020D11F0000ED1E0000008000418D
:104A4000251D000024010020F80B0020591D000046
:104A50002DE9F84F544F4FF48048C7F81481534E56
:104A6000DFF85C91022206F16C01D9F80000DFF852
:104A700054A1D0474E4D02222946D9F80000DFF854
:104A800048B1D847C7F818812B784A4C23716B7806
:104A90006371C7F81481022206F12401D9F80000DD
:104AA000D04702222946D9F80000D847C7F8188114
:104AB0002B7823716B786371C7F81481022206F199
:104AC0007001D9F80000D04702222946D9F8000029
:104AD000D847C7F818812B7823726A78627243EA44
:104AE000022363810520344B9847C7F814810222C2
:104AF00006F17401D9F80000D04702222946D9F8FE
:104B00000000D847C7F818812B7823736A7862733E
:104B100043EA0223E3810520274B9847C7F8148115
:104B2000022206F17801D9F80000D0470222294676
:104B3000D9F80000D847C7F818812B7823746A7811
:104B4000627443EA02236382C7F81481022206F1E9
:104B50007C01D9F80000D04702222946D9F800008C
:104B6000D847C7F818810520134B98472B78237531
:104B70006A78627543EA0221E182617A7173217A6F
:104B8000B173617BF173217B3174617C7174217C21
:104B9000B174F27433750A2206F10C01074B1868E0
:104BA000D047BDE8F88F00BF0080004124010020FD
:104BB000F80B002094040020F11B0000900B002053
:104BC000100C0020251D0000591D0000F8B50D4DEA
:104BD0004FF48046C5F814610B4F02220B49386828
:104BE0000B4B98470B4C0222214638680A4B9847DA
:104BF000C5F818616378207840EA0320074BD88114
:104C0000F8BD00BF00800041100C0020980100207A
:104C1000251D0000F80B0020591D00009404002001
:104C2000FF20014B5881704794040020F8B50D4DCA
:104C30004FF48046C5F814610B4F02220B493868C7
:104C40000B4B98470B4C0222214638680A4B984779
:104C5000C5F818616378207840EA0320074BD882B2
:104C6000F8BD00BF00800041100C0020940100201E
:104C7000251D0000F80B0020591D000094040020A1
:104C8000FF20014B588270479404002038B5094D2D
:104C90002846094B9847094C022322460021284602
:104CA000074DA8476378207840EA0320054B188316
:104CB00038BD00BF20050020991B0000F80B002024
:104CC000C91A00009404002038B50D4D28460D4B3C
:104CD00098470D4C02232246002128460B4DA84739
:104CE00023780B4981F8813063787F3381F88230F3
:104CF00004228031074B1868074B984738BD00BF26
:104D000020050020991B0000F80B0020C91A0000A4
:104D100024010020900B0020251D000038B5074C11
:104D2000074B002211462046064DA8470021204689
:104D3000054B98472046054B984738BD2005002075
:104D4000A1440000451A0000051A0000991B00004C
:104D500008B5014B984708BD1D4D000038B50A4BFA
:104D600098470A4D28460A4B98470A4C0223224688
:104D700000212846084DA8476378207840EA0320A0
:104D8000064B188338BD00BF1D4D000020050020D4
:104D9000991B0000F80B0020C91A000094040020A1
:104DA00038B50E4B98470E4D28460E4B98470E4C83
:104DB00002232246002128460C4DA84723780C499F
:104DC00081F8813063787F3381F88230042280312A
:104DD000084B1868084B984738BD00BF1D4D0000B0
:104DE00020050020991B0000F80B0020C91A0000C4
:104DF00024010020900B0020251D000070B5104BF1
:104E00009847104E104C31462046104B984720468C
:104E10000F4B98470F4D4FF4006295F884102046D1
:104E20000D4B9847022205F1880130680B4B9847DB
:104E300002230B4A95F88A1020460A4CA04770BD01
:104E40001D4D0000FC0B0020BC0500201D1D0000B6
:104E5000B11C000024010020BD1C0000251D000025
:104E6000F80B0020CD1C00002DE9F04F85B0804CE0
:104E7000A27EE37E1B0143EAC2135BB2227F13438F
:104E800060228DF80C2000218DF80D108DF80E3069
:104E90008DF80F10637FA17F41EA8311E07FDFF877
:104EA000ECA19AF88B305B0143EAC0135BB294F833
:104EB000200043EA00135BB294F8210043EAC003E8
:104EC0005BB29AF88C0043EA80035BB294F822004C
:104ED00003438DF808208DF809308DF80A104FF043
:104EE00004038DF80B3094F8231094F824305B0100
:104EF00043EA41135BB294F8251043EA81035BB2A5
:104F000094F826100B439AF88D0094F82710490066
:104F100041EAC00149B294F8280001438DF8042009
:104F20008DF805108DF8063008238DF80730514DA7
:104F3000514E29463046514B98473046504B984782
:104F4000504E4FF48047C6F8147101220AF18E01C9
:104F50002868DFF83C91C84704F12C08012241463B
:104F60002868494CA047C6F81871C6F81471012288
:104F70000AF18F012868C847012241462868A047E6
:104F8000C6F81871C6F814710AF1900B022259463E
:104F90002868C847032241462868A047C6F8187108
:104FA000C6F81471042203A92868C84701224146A3
:104FB0002868A047C6F81871C6F81471022259462D
:104FC0002868C847032241462868A047C6F81871D8
:104FD000C6F814710AF1940B022259462868C84792
:104FE000032241462868A047C6F81871C6F8147114
:104FF00004220DEB02012868C847012241462868B7
:10500000A047C6F81871C6F81471022259462868DC
:10501000C847032241462868A047C6F81871C6F859
:1050200014710AF1980A022251462868C8470322DF
:1050300041462868A047C6F81871C6F814710422C2
:1050400002A92868C847032241462868A047C6F835
:105050001871C6F81471022251462868C847032205
:1050600041462868A047C6F8187105B0BDE8F08F22
:1050700094040020100C002008050020D11F00001F
:10508000ED1E000000800041591D00002401002099
:10509000251D00002DE9F84F384E4FF48047C6F823
:1050A0001471374DDFF8E880012205F19A01D8F834
:1050B0000000DFF8E090C847324C04F12C0B0122CD
:1050C0005946D8F80000DFF8D0A0D047C6F81871CC
:1050D00094F82C3084F8383005202B4B9847C6F8CC
:1050E0001471012205F19B01D8F80000C84709227C
:1050F0005946D8F80000D047C6F8187194F82C30FB
:1051000084F8383094F82E8084F83C8094F82DC0D0
:1051100084F83DC094F830E084F840E094F82F70B3
:1051200084F8417094F8326084F8446094F8310057
:1051300084F8450094F8341084F8481094F833202B
:1051400084F8492085F89D3085F89E3085F89F8049
:1051500085F8A0C085F8A1E085F8A27085F8A36065
:1051600085F8A40085F8A51085F8A6200C2205F185
:105170009C01064B1868C847BDE8F88F00800041C5
:105180002401002094040020F11B0000900B00205B
:10519000100C0020251D0000591D00002DE9F84FBE
:1051A000254D4FF48046C5F81461DFF89CB0234FBD
:1051B00001220BF19A013868DFF890A0D047204C0B
:1051C00004F12C09012249463868DFF88480C04781
:1051D000C5F8186102201B4B9847C5F814610122DD
:1051E0000BF19B013868D047092249463868C0470F
:1051F000C5F8186194F82F2094F8303043EA022360
:10520000A4F84A3094F8312094F8323043EA02236B
:10521000A4F84C3094F8332094F8343043EA022355
:10522000A4F84E3094F82D2094F82E3043EA02234F
:10523000A4F85030BDE8F88F00800041100C002029
:1052400094040020F11B000024010020251D000013
:10525000591D0000014BB3F84E0070479404002024
:10526000014BB3F84A00704794040020014BB3F897
:105270004C0070479404002081F0004102E000BF20
:1052800083F0004330B54FEA41044FEA430594EA06
:10529000050F08BF90EA020F1FBF54EA000C55EA41
:1052A000020C7FEA645C7FEA655C00F0E2804FEA12
:1052B0005454D4EB5555B8BF6D420CDD2C4480EAF4
:1052C000020281EA030382EA000083EA010180EA24
:1052D000020281EA0303362D88BF30BD11F0004F72
:1052E0004FEA01314FF4801C4CEA113102D04042A8
:1052F00061EB410113F0004F4FEA03334CEA1333E3
:1053000002D0524263EB430394EA050F00F0A780FA
:10531000A4F10104D5F1200E0DDB02FA0EFC22FAF5
:1053200005F2801841F1000103FA0EF2801843FAE9
:1053300005F359410EE0A5F120050EF1200E012ADA
:1053400003FA0EFC28BF4CF0020C43FA05F3C01818
:1053500051EBE37101F0004507D54FF0000EDCF191
:10536000000C7EEB00006EEB0101B1F5801F1BD33A
:10537000B1F5001F0CD349085FEA30004FEA3C0C3E
:1053800004F101044FEA445212F5800F80F09A8034
:10539000BCF1004F08BF5FEA500C50F1000041EB38
:1053A000045141EA050130BD5FEA4C0C404141EB3C
:1053B000010111F4801FA4F10104E9D191F0000F63
:1053C00004BF01460020B1FA81F308BF2033A3F1E6
:1053D0000B03B3F120020CDA0C3208DD02F1140CDD
:1053E000C2F10C0201FA0CF021FA02F10CE002F118
:1053F0001402D8BFC2F1200C01FA02F120FA0CFC11
:10540000DCBF41EA0C019040E41AA2BF01EB045159
:10541000294330BD6FEA04041F3C1CDA0C340EDC57
:1054200004F11404C4F1200220FA04F001FA02F39A
:1054300040EA030021FA04F345EA030130BDC4F158
:105440000C04C4F1200220FA02F001FA04F340EA4D
:105450000300294630BD21FA04F0294630BD94F0FE
:10546000000F83F4801306BF81F480110134013DE5
:105470004EE77FEA645C18BF7FEA655C29D094EA56
:10548000050F08BF90EA020F05D054EA000C04BFD4
:105490001946104630BD91EA030F1EBF00210020BF
:1054A00030BD5FEA545C05D14000494128BF41F05E
:1054B000004130BD14F580043CBF01F5801130BDC2
:1054C00001F0004545F0FE4141F470014FF000004D
:1054D00030BD7FEA645C1ABF194610467FEA655CFE
:1054E0001CBF0B46024650EA013406BF52EA0335A0
:1054F00091EA030F41F4002130BD00BF90F0000F8E
:1055000004BF0021704730B54FF4806404F13204C9
:105510004FF000054FF0000150E700BF90F0000F82
:1055200004BF0021704730B54FF4806404F13204A9
:1055300010F0004548BF40424FF000013EE700BF79
:1055400042004FEAE2014FEA31014FEA02701FBF09
:1055500012F07F4393F07F4F81F06051704792F0DB
:10556000000F14BF93F07F4F704730B54FF4607455
:1055700001F0004521F0004120E700BF50EA0102A0
:1055800008BF704730B54FF000050AE050EA01024D
:1055900008BF704730B511F0004502D5404261EBBD
:1055A00041014FF4806404F132045FEA915C3FF4FE
:1055B000DCAE4FF003025FEADC0C18BF03325FEA97
:1055C000DC0C18BF033202EBDC02C2F1200300FA4C
:1055D00003FC20FA02F001FA03FE40EA0E0021FA71
:1055E00002F11444C1E600BF70B54FF0FF0C4CF45B
:1055F000E06C1CEA11541DBF1CEA135594EA0C0F11
:1056000095EA0C0F00F0DEF82C4481EA030621EA4B
:105610004C5123EA4C5350EA013518BF52EA033586
:1056200041F4801143F4801338D0A0FB02CE4FF038
:105630000005E1FB02E506F00042E0FB03E54FF068
:105640000006E1FB03569CF0000F18BF4EF0010E60
:10565000A4F1FF04B6F5007F64F5407404D25FEA5C
:105660004E0E6D4146EB060642EAC62141EA55510F
:105670004FEAC52040EA5E504FEACE2EB4F1FD0C51
:1056800088BFBCF5E06F1ED8BEF1004F08BF5FEACF
:10569000500E50F1000041EB045170BD06F0004681
:1056A00046EA010140EA020081EA0301B4EB5C042E
:1056B000C2BFD4EB0C0541EA045170BD41F4801126
:1056C0004FF0000E013C00F3AB8014F1360FDEBF4B
:1056D000002001F0004170BDC4F10004203C35DA27
:1056E0000C341BDC04F11404C4F1200500FA05F3AA
:1056F00020FA04F001FA05F240EA020001F000424B
:1057000021F0004110EBD37021FA04F642EB0601C0
:105710005EEA430E08BF20EAD37070BDC4F10C04EA
:10572000C4F1200500FA04F320FA05F001FA04F2AE
:1057300040EA020001F0004110EBD37041F100019A
:105740005EEA430E08BF20EAD37070BDC4F12005A5
:1057500000FA05F24EEA020E20FA04F301FA05F20D
:1057600043EA020321FA04F001F0004121FA04F2B5
:1057700020EA020000EBD3705EEA430E08BF20EA85
:10578000D37070BD94F0000F0FD101F000464000BF
:1057900041EB010111F4801F08BF013CF7D041EA41
:1057A000060195F0000F18BF704703F00046520045
:1057B00043EB030313F4801F08BF013DF7D043EA16
:1057C0000603704794EA0C0F0CEA135518BF95EACC
:1057D0000C0F0CD050EA410618BF52EA4306D1D153
:1057E00081EA030101F000414FF0000070BD50EA72
:1057F000410606BF1046194652EA430619D094EAFC
:105800000C0F02D150EA013613D195EA0C0F05D1E5
:1058100052EA03361CBF104619460AD181EA030139
:1058200001F0004141F0FE4141F470014FF00000F1
:1058300070BD41F0FE4141F4780170BD70B54FF08C
:10584000FF0C4CF4E06C1CEA11541DBF1CEA13550C
:1058500094EA0C0F95EA0C0F00F0A7F8A4EB0504EE
:1058600081EA030E52EA03354FEA013100F08880E5
:105870004FEA03334FF0805545EA131343EA1263AE
:105880004FEA022245EA111545EA10654FEA002663
:105890000EF000419D4208BF964244F1FD0404F51C
:1058A000407402D25B084FEA3202B61A65EB030578
:1058B0005B084FEA32024FF480104FF4002CB6EB35
:1058C000020E75EB030E22BFB61A754640EA0C00B5
:1058D0005B084FEA3202B6EB020E75EB030E22BFF5
:1058E000B61A754640EA5C005B084FEA3202B6EB36
:1058F000020E75EB030E22BFB61A754640EA9C00F5
:105900005B084FEA3202B6EB020E75EB030E22BFC4
:10591000B61A754640EADC0055EA060E18D04FEA82
:10592000051545EA16754FEA06164FEAC30343EA22
:1059300052734FEAC2025FEA1C1CC0D111F4801FEF
:105940000BD141EA00014FF000004FF0004CB6E7E8
:1059500011F4801F04BF01430020B4F1FD0C88BF87
:10596000BCF5E06F3FF6AFAEB5EB030C04BFB6EB92
:10597000020C5FEA500C50F1000041EB045170BD85
:105980000EF0004E4EEA113114EB5C04C2BFD4EBB2
:105990000C0541EA045170BD41F480114FF0000E36
:1059A000013C90E645EA060E8DE60CEA135594EAB2
:1059B0000C0F08BF95EA0C0F3FF43BAF94EA0C0FB5
:1059C0000AD150EA01347FF434AF95EA0C0F7FF42A
:1059D00025AF104619462CE795EA0C0F06D152EA7E
:1059E00003353FF4FDAE1046194622E750EA410662
:1059F00018BF52EA43067FF4C5AE50EA41047FF473
:105A00000DAF52EA43057FF4EBAE12E74FF0FF3CD7
:105A100006E000BF4FF0010C02E000BF4FF0010CA8
:105A20004DF804CD4FEA410C7FEA6C5C4FEA430C21
:105A300018BF7FEA6C5C1BD001B050EA410C0CBF70
:105A400052EA430C91EA030F02BF90EA020F0020D2
:105A5000704710F1000F91EA030F58BF994208BF39
:105A600090422CBFD8176FEAE37040F001007047F6
:105A70004FEA410C7FEA6C5C02D150EA013C07D14D
:105A80004FEA430C7FEA6C5CD6D152EA033CD3D098
:105A90005DF8040B704700BF8446104662468C4692
:105AA0001946634600E000BF01B5FFF7B7FF0028C5
:105AB00048BF10F1000F01BD4DF808EDFFF7F4FFEE
:105AC0000CBF012000205DF808FB00BF4DF808ED79
:105AD000FFF7EAFF34BF012000205DF808FB00BF9C
